{
  "contractName": "Elecciones",
  "abi": [
    {
      "constant": true,
      "inputs": [
        {
          "name": "",
          "type": "uint256"
        }
      ],
      "name": "candidatos",
      "outputs": [
        {
          "name": "id",
          "type": "uint256"
        },
        {
          "name": "nombre",
          "type": "string"
        },
        {
          "name": "votoCount",
          "type": "uint256"
        }
      ],
      "payable": false,
      "stateMutability": "view",
      "type": "function"
    },
    {
      "constant": true,
      "inputs": [
        {
          "name": "",
          "type": "address"
        }
      ],
      "name": "votantes",
      "outputs": [
        {
          "name": "",
          "type": "bool"
        }
      ],
      "payable": false,
      "stateMutability": "view",
      "type": "function"
    },
    {
      "constant": true,
      "inputs": [],
      "name": "candidatosCount",
      "outputs": [
        {
          "name": "",
          "type": "uint256"
        }
      ],
      "payable": false,
      "stateMutability": "view",
      "type": "function"
    },
    {
      "inputs": [],
      "payable": false,
      "stateMutability": "nonpayable",
      "type": "constructor"
    },
    {
      "anonymous": false,
      "inputs": [
        {
          "indexed": true,
          "name": "_candidatoID",
          "type": "uint256"
        }
      ],
      "name": "votedEvento",
      "type": "event"
    },
    {
      "constant": false,
      "inputs": [
        {
          "name": "_candidatoID",
          "type": "uint256"
        }
      ],
      "name": "vote",
      "outputs": [],
      "payable": false,
      "stateMutability": "nonpayable",
      "type": "function"
    }
  ],
  "bytecode": "0x6060604052341561000f57600080fd5b6100606040805190810160405280600381526020017f50504b0000000000000000000000000000000000000000000000000000000000815250610158640100000000026103b8176401000000009004565b6100b16040805190810160405280600581526020017f4b65696b6f000000000000000000000000000000000000000000000000000000815250610158640100000000026103b8176401000000009004565b6101026040805190810160405280600481526020017f416c616e00000000000000000000000000000000000000000000000000000000815250610158640100000000026103b8176401000000009004565b6101536040805190810160405280600e81526020017f566f746f20656e20626c616e636f000000000000000000000000000000000000815250610158640100000000026103b8176401000000009004565b61027a565b600260008154809291906001019190505550606060405190810160405280600254815260200182815260200160008152506001600060025481526020019081526020016000206000820151816000015560208201518160010190805190602001906101c49291906101d5565b506040820151816002015590505050565b828054600181600116156101000203166002900490600052602060002090601f016020900481019282601f1061021657805160ff1916838001178555610244565b82800160010185558215610244579182015b82811115610243578251825591602001919060010190610228565b5b5090506102519190610255565b5090565b61027791905b8082111561027357600081600090555060010161025b565b5090565b90565b610506806102896000396000f300606060405260043610610062576000357c0100000000000000000000000000000000000000000000000000000000900463ffffffff1680630121b93f146100675780638f023f851461008a578063a92284d014610134578063c8c0598214610185575b600080fd5b341561007257600080fd5b61008860048080359060200190919050506101ae565b005b341561009557600080fd5b6100ab60048080359060200190919050506102d0565b6040518084815260200180602001838152602001828103825284818151815260200191508051906020019080838360005b838110156100f75780820151818401526020810190506100dc565b50505050905090810190601f1680156101245780820380516001836020036101000a031916815260200191505b5094505050505060405180910390f35b341561013f57600080fd5b61016b600480803573ffffffffffffffffffffffffffffffffffffffff16906020019091905050610392565b604051808215151515815260200191505060405180910390f35b341561019057600080fd5b6101986103b2565b6040518082815260200191505060405180910390f35b6000803373ffffffffffffffffffffffffffffffffffffffff1673ffffffffffffffffffffffffffffffffffffffff16815260200190815260200160002060009054906101000a900460ff1615151561020657600080fd5b60008111801561021857506002548111155b151561022357600080fd5b60016000803373ffffffffffffffffffffffffffffffffffffffff1673ffffffffffffffffffffffffffffffffffffffff16815260200190815260200160002060006101000a81548160ff0219169083151502179055506001600082815260200190815260200160002060020160008154809291906001019190505550807f61b3d258f1d7e08cc681b11b7b4f11abf2602e6b0c6bfc9dceb01bc12a88467260405160405180910390a250565b6001602052806000526040600020600091509050806000015490806001018054600181600116156101000203166002900480601f0160208091040260200160405190810160405280929190818152602001828054600181600116156101000203166002900480156103825780601f1061035757610100808354040283529160200191610382565b820191906000526020600020905b81548152906001019060200180831161036557829003601f168201915b5050505050908060020154905083565b60006020528060005260406000206000915054906101000a900460ff1681565b60025481565b60026000815480929190600101919050555060606040519081016040528060025481526020018281526020016000815250600160006002548152602001908152602001600020600082015181600001556020820151816001019080519060200190610424929190610435565b506040820151816002015590505050565b828054600181600116156101000203166002900490600052602060002090601f016020900481019282601f1061047657805160ff19168380011785556104a4565b828001600101855582156104a4579182015b828111156104a3578251825591602001919060010190610488565b5b5090506104b191906104b5565b5090565b6104d791905b808211156104d35760008160009055506001016104bb565b5090565b905600a165627a7a72305820d117132f760416a4e7a16045f4721f6e56411b648ae6eb3c1147652c2ab71c0a0029",
  "source": "pragma solidity ^0.4.2;\r\n\r\ncontract Elecciones {\r\n    //Modelar un candidato\r\n    struct Candidato{\r\n        uint id;\r\n        string nombre;\r\n        uint votoCount;\r\n    }\r\n\r\n    //Almacenar cuentas que han votado\r\n    mapping (address=>bool) public votantes;\r\n    //Almacenamos un candidato usando Hash Table\r\n    mapping (uint=>Candidato) public candidatos;\r\n\r\n    //Almacenar cantidad candidatos (No se puede recorrer el Hash)\r\n    uint public candidatosCount;\r\n\r\n    //evento voto\r\n    event votedEvento (\r\n        uint indexed _candidatoID\r\n    );\r\n\r\n    //Constructor\r\n    function Elecciones() public {\r\n        //Agregamos candidatos\r\n        addCandidato(\"PPK\");\r\n        addCandidato(\"Keiko\");\r\n        addCandidato(\"Alan\");\r\n        addCandidato(\"Voto en blanco\");\r\n    }\r\n\r\n    //Nos permite contabilizar la cantidad de candidatos y agregarlos\r\n    function addCandidato(string _nombre) private {\r\n        candidatosCount++;\r\n        candidatos[candidatosCount] = Candidato(candidatosCount, _nombre, 0);\r\n    }\r\n\r\n    function vote(uint _candidatoID) public {\r\n\r\n        //requerir que no haya votado antes\r\n        require(!votantes[msg.sender]); //si es falso se sale del metodo\r\n\r\n\r\n        //requerir un candidato valido\r\n        require(_candidatoID > 0 && _candidatoID <= candidatosCount);\r\n\r\n        //registrar al votante\r\n        //con msg sender automaticamente tenemos la direccion de cuenta del que registra\r\n        votantes[msg.sender] = true;\r\n\r\n        // actualizar cantidad de voto del candidato\r\n        candidatos[_candidatoID].votoCount ++;\r\n\r\n        // activar evento votado\r\n        votedEvento(_candidatoID);\r\n    }\r\n\r\n}",
  "sourcePath": "C:\\Users\\USUARIO\\Desktop\\elecciones-dapp-blockchain\\elecciones-dapp\\contracts\\Elecciones.sol",
  "compiler": {
    "name": "solc",
    "version": "0.4.21+commit.dfe3193c.Emscripten.clang"
  },
  "schemaVersion": "2.0.0",
  "updatedAt": "2018-06-24T04:48:42.126Z"
}